{
  "_format": "hh-sol-artifact-1",
  "contractName": "SalesManager",
  "sourceName": "contracts/SalesManager.sol",
  "abi": [
    {
      "inputs": [
        {
          "internalType": "address",
          "name": "_oracle",
          "type": "address"
        }
      ],
      "stateMutability": "nonpayable",
      "type": "constructor"
    },
    {
      "anonymous": false,
      "inputs": [
        {
          "indexed": true,
          "internalType": "string",
          "name": "transactionId",
          "type": "string"
        },
        {
          "indexed": false,
          "internalType": "bool",
          "name": "isPaid",
          "type": "bool"
        }
      ],
      "name": "PaymentUpdated",
      "type": "event"
    },
    {
      "anonymous": false,
      "inputs": [
        {
          "indexed": false,
          "internalType": "string",
          "name": "transactionId",
          "type": "string"
        },
        {
          "indexed": true,
          "internalType": "address",
          "name": "agent",
          "type": "address"
        },
        {
          "indexed": false,
          "internalType": "string",
          "name": "hash",
          "type": "string"
        }
      ],
      "name": "SaleRecorded",
      "type": "event"
    },
    {
      "anonymous": false,
      "inputs": [
        {
          "indexed": false,
          "internalType": "string",
          "name": "transactionId",
          "type": "string"
        },
        {
          "indexed": false,
          "internalType": "bool",
          "name": "success",
          "type": "bool"
        },
        {
          "indexed": false,
          "internalType": "string",
          "name": "reason",
          "type": "string"
        }
      ],
      "name": "SaleVerificationResult",
      "type": "event"
    },
    {
      "inputs": [],
      "name": "oracle",
      "outputs": [
        {
          "internalType": "address",
          "name": "",
          "type": "address"
        }
      ],
      "stateMutability": "view",
      "type": "function"
    },
    {
      "inputs": [],
      "name": "owner",
      "outputs": [
        {
          "internalType": "address",
          "name": "",
          "type": "address"
        }
      ],
      "stateMutability": "view",
      "type": "function"
    },
    {
      "inputs": [
        {
          "components": [
            {
              "internalType": "string",
              "name": "transactionId",
              "type": "string"
            },
            {
              "internalType": "uint256",
              "name": "totalAmt",
              "type": "uint256"
            },
            {
              "internalType": "uint256",
              "name": "totalQty",
              "type": "uint256"
            },
            {
              "internalType": "uint256",
              "name": "timestamp",
              "type": "uint256"
            }
          ],
          "internalType": "struct SalesManager.Payload",
          "name": "_payload",
          "type": "tuple"
        },
        {
          "internalType": "string",
          "name": "_hash",
          "type": "string"
        }
      ],
      "name": "record_sale",
      "outputs": [],
      "stateMutability": "nonpayable",
      "type": "function"
    },
    {
      "inputs": [
        {
          "internalType": "string",
          "name": "",
          "type": "string"
        }
      ],
      "name": "sales",
      "outputs": [
        {
          "internalType": "address",
          "name": "agent",
          "type": "address"
        },
        {
          "components": [
            {
              "internalType": "string",
              "name": "transactionId",
              "type": "string"
            },
            {
              "internalType": "uint256",
              "name": "totalAmt",
              "type": "uint256"
            },
            {
              "internalType": "uint256",
              "name": "totalQty",
              "type": "uint256"
            },
            {
              "internalType": "uint256",
              "name": "timestamp",
              "type": "uint256"
            }
          ],
          "internalType": "struct SalesManager.Payload",
          "name": "payload",
          "type": "tuple"
        },
        {
          "internalType": "string",
          "name": "txHash",
          "type": "string"
        },
        {
          "internalType": "bool",
          "name": "isVerified",
          "type": "bool"
        },
        {
          "internalType": "bool",
          "name": "isPaid",
          "type": "bool"
        }
      ],
      "stateMutability": "view",
      "type": "function"
    },
    {
      "inputs": [
        {
          "internalType": "address",
          "name": "_oracle",
          "type": "address"
        }
      ],
      "name": "setOracle",
      "outputs": [],
      "stateMutability": "nonpayable",
      "type": "function"
    },
    {
      "inputs": [
        {
          "internalType": "string",
          "name": "transactionId",
          "type": "string"
        }
      ],
      "name": "update_payment",
      "outputs": [],
      "stateMutability": "nonpayable",
      "type": "function"
    },
    {
      "inputs": [
        {
          "internalType": "string",
          "name": "transactionId",
          "type": "string"
        },
        {
          "internalType": "string",
          "name": "oracleHash",
          "type": "string"
        },
        {
          "internalType": "address",
          "name": "oracleWallet",
          "type": "address"
        }
      ],
      "name": "verify_transaction",
      "outputs": [],
      "stateMutability": "nonpayable",
      "type": "function"
    }
  ],
  "bytecode": "0x60806040523480156200001157600080fd5b50604051620019b8380380620019b8833981810160405281019062000037919062000129565b336000806101000a81548173ffffffffffffffffffffffffffffffffffffffff021916908373ffffffffffffffffffffffffffffffffffffffff16021790555080600160006101000a81548173ffffffffffffffffffffffffffffffffffffffff021916908373ffffffffffffffffffffffffffffffffffffffff160217905550506200015b565b600080fd5b600073ffffffffffffffffffffffffffffffffffffffff82169050919050565b6000620000f182620000c4565b9050919050565b6200010381620000e4565b81146200010f57600080fd5b50565b6000815190506200012381620000f8565b92915050565b600060208284031215620001425762000141620000bf565b5b6000620001528482850162000112565b91505092915050565b61184d806200016b6000396000f3fe608060405234801561001057600080fd5b506004361061007d5760003560e01c80638da5cb5b1161005b5780638da5cb5b146100d8578063a5d0eeff146100f6578063d394059a14610112578063fbb37cf21461012e5761007d565b80637adbf973146100825780637cef1ac91461009e5780637dc0d1d0146100ba575b600080fd5b61009c60048036038101906100979190610b50565b610162565b005b6100b860048036038101906100b39190610cc3565b610234565b005b6100c261053c565b6040516100cf9190610d5d565b60405180910390f35b6100e0610562565b6040516100ed9190610d5d565b60405180910390f35b610110600480360381019061010b9190610d78565b610586565b005b61012c60048036038101906101279190610e95565b61070f565b005b61014860048036038101906101439190610d78565b610916565b604051610159959493929190611063565b60405180910390f35b60008054906101000a900473ffffffffffffffffffffffffffffffffffffffff1673ffffffffffffffffffffffffffffffffffffffff163373ffffffffffffffffffffffffffffffffffffffff16146101f0576040517f08c379a00000000000000000000000000000000000000000000000000000000081526004016101e790611110565b60405180910390fd5b80600160006101000a81548173ffffffffffffffffffffffffffffffffffffffff021916908373ffffffffffffffffffffffffffffffffffffffff16021790555050565b600160009054906101000a900473ffffffffffffffffffffffffffffffffffffffff1673ffffffffffffffffffffffffffffffffffffffff163373ffffffffffffffffffffffffffffffffffffffff16146102c4576040517f08c379a00000000000000000000000000000000000000000000000000000000081526004016102bb9061117c565b60405180910390fd5b60006002846040516102d691906111d8565b908152602001604051809103902090506000816001016003015403610330576040517f08c379a00000000000000000000000000000000000000000000000000000000081526004016103279061123b565b60405180910390fd5b600083805190602001208260050160405161034b919061135e565b604051809103902014905060008373ffffffffffffffffffffffffffffffffffffffff168360000160009054906101000a900473ffffffffffffffffffffffffffffffffffffffff1673ffffffffffffffffffffffffffffffffffffffff161490508180156103b75750805b156104185760018360060160006101000a81548160ff0219169083151502179055507f8f1782b8ab45fa360266c4db50129e94b7753da2c07430677df42cd96a37383c86600160405161040b9291906113c1565b60405180910390a1610534565b600060405180602001604052806000815250905082158015610438575081155b1561047a576040518060400160405280601881526020017f4861736820616e642057616c6c6574204d69736d61746368000000000000000081525090506104f6565b826104bc576040518060400160405280600d81526020017f48617368204d69736d617463680000000000000000000000000000000000000081525090506104f5565b6040518060400160405280600f81526020017f57616c6c6574204d69736d61746368000000000000000000000000000000000081525090505b5b7f8f1782b8ab45fa360266c4db50129e94b7753da2c07430677df42cd96a37383c8760008360405161052a93929190611404565b60405180910390a1505b505050505050565b600160009054906101000a900473ffffffffffffffffffffffffffffffffffffffff1681565b60008054906101000a900473ffffffffffffffffffffffffffffffffffffffff1681565b600160009054906101000a900473ffffffffffffffffffffffffffffffffffffffff1673ffffffffffffffffffffffffffffffffffffffff163373ffffffffffffffffffffffffffffffffffffffff1614610616576040517f08c379a000000000000000000000000000000000000000000000000000000000815260040161060d9061117c565b60405180910390fd5b60028160405161062691906111d8565b908152602001604051809103902060060160009054906101000a900460ff16610684576040517f08c379a000000000000000000000000000000000000000000000000000000000815260040161067b906114bb565b60405180910390fd5b600160028260405161069691906111d8565b908152602001604051809103902060060160016101000a81548160ff021916908315150217905550806040516106cc91906111d8565b60405180910390207f805b8c1bc900d381b9ee1bac26009eac3d6a4fa3fa9724f5c48a6c4bf1d70496600160405161070491906114db565b60405180910390a250565b60006002836000015160405161072591906111d8565b9081526020016040518091039020600101600301541461077a576040517f08c379a000000000000000000000000000000000000000000000000000000000815260040161077190611542565b60405180910390fd5b6040518060a001604052803373ffffffffffffffffffffffffffffffffffffffff16815260200183815260200182815260200160001515815260200160001515815250600283600001516040516107d191906111d8565b908152602001604051809103902060008201518160000160006101000a81548173ffffffffffffffffffffffffffffffffffffffff021916908373ffffffffffffffffffffffffffffffffffffffff1602179055506020820151816001016000820151816000019081610844919061170e565b506020820151816001015560408201518160020155606082015181600301555050604082015181600501908161087a919061170e565b5060608201518160060160006101000a81548160ff02191690831515021790555060808201518160060160016101000a81548160ff0219169083151502179055509050503373ffffffffffffffffffffffffffffffffffffffff167f938f1cbcdb0d6b141d99b66afa8126e9c06a8cd9d321d5f5192ab8c08fb6638283600001518360405161090a9291906117e0565b60405180910390a25050565b6002818051602081018201805184825260208301602085012081835280955050505050506000915090508060000160009054906101000a900473ffffffffffffffffffffffffffffffffffffffff1690806001016040518060800160405290816000820180546109859061128a565b80601f01602080910402602001604051908101604052809291908181526020018280546109b19061128a565b80156109fe5780601f106109d3576101008083540402835291602001916109fe565b820191906000526020600020905b8154815290600101906020018083116109e157829003601f168201915b50505050508152602001600182015481526020016002820154815260200160038201548152505090806005018054610a359061128a565b80601f0160208091040260200160405190810160405280929190818152602001828054610a619061128a565b8015610aae5780601f10610a8357610100808354040283529160200191610aae565b820191906000526020600020905b815481529060010190602001808311610a9157829003601f168201915b5050505050908060060160009054906101000a900460ff16908060060160019054906101000a900460ff16905085565b6000604051905090565b600080fd5b600080fd5b600073ffffffffffffffffffffffffffffffffffffffff82169050919050565b6000610b1d82610af2565b9050919050565b610b2d81610b12565b8114610b3857600080fd5b50565b600081359050610b4a81610b24565b92915050565b600060208284031215610b6657610b65610ae8565b5b6000610b7484828501610b3b565b91505092915050565b600080fd5b600080fd5b6000601f19601f8301169050919050565b7f4e487b7100000000000000000000000000000000000000000000000000000000600052604160045260246000fd5b610bd082610b87565b810181811067ffffffffffffffff82111715610bef57610bee610b98565b5b80604052505050565b6000610c02610ade565b9050610c0e8282610bc7565b919050565b600067ffffffffffffffff821115610c2e57610c2d610b98565b5b610c3782610b87565b9050602081019050919050565b82818337600083830152505050565b6000610c66610c6184610c13565b610bf8565b905082815260208101848484011115610c8257610c81610b82565b5b610c8d848285610c44565b509392505050565b600082601f830112610caa57610ca9610b7d565b5b8135610cba848260208601610c53565b91505092915050565b600080600060608486031215610cdc57610cdb610ae8565b5b600084013567ffffffffffffffff811115610cfa57610cf9610aed565b5b610d0686828701610c95565b935050602084013567ffffffffffffffff811115610d2757610d26610aed565b5b610d3386828701610c95565b9250506040610d4486828701610b3b565b9150509250925092565b610d5781610b12565b82525050565b6000602082019050610d726000830184610d4e565b92915050565b600060208284031215610d8e57610d8d610ae8565b5b600082013567ffffffffffffffff811115610dac57610dab610aed565b5b610db884828501610c95565b91505092915050565b600080fd5b600080fd5b6000819050919050565b610dde81610dcb565b8114610de957600080fd5b50565b600081359050610dfb81610dd5565b92915050565b600060808284031215610e1757610e16610dc1565b5b610e216080610bf8565b9050600082013567ffffffffffffffff811115610e4157610e40610dc6565b5b610e4d84828501610c95565b6000830152506020610e6184828501610dec565b6020830152506040610e7584828501610dec565b6040830152506060610e8984828501610dec565b60608301525092915050565b60008060408385031215610eac57610eab610ae8565b5b600083013567ffffffffffffffff811115610eca57610ec9610aed565b5b610ed685828601610e01565b925050602083013567ffffffffffffffff811115610ef757610ef6610aed565b5b610f0385828601610c95565b9150509250929050565b600081519050919050565b600082825260208201905092915050565b60005b83811015610f47578082015181840152602081019050610f2c565b60008484015250505050565b6000610f5e82610f0d565b610f688185610f18565b9350610f78818560208601610f29565b610f8181610b87565b840191505092915050565b610f9581610dcb565b82525050565b60006080830160008301518482036000860152610fb88282610f53565b9150506020830151610fcd6020860182610f8c565b506040830151610fe06040860182610f8c565b506060830151610ff36060860182610f8c565b508091505092915050565b600082825260208201905092915050565b600061101a82610f0d565b6110248185610ffe565b9350611034818560208601610f29565b61103d81610b87565b840191505092915050565b60008115159050919050565b61105d81611048565b82525050565b600060a0820190506110786000830188610d4e565b818103602083015261108a8187610f9b565b9050818103604083015261109e818661100f565b90506110ad6060830185611054565b6110ba6080830184611054565b9695505050505050565b7f4f6e6c79206f776e65722063616e2063616c6c20746869730000000000000000600082015250565b60006110fa601883610ffe565b9150611105826110c4565b602082019050919050565b60006020820190508181036000830152611129816110ed565b9050919050565b7f4f6e6c79206f7261636c652063616e2063616c6c207468697300000000000000600082015250565b6000611166601983610ffe565b915061117182611130565b602082019050919050565b6000602082019050818103600083015261119581611159565b9050919050565b600081905092915050565b60006111b282610f0d565b6111bc818561119c565b93506111cc818560208601610f29565b80840191505092915050565b60006111e482846111a7565b915081905092915050565b7f5472616e73616374696f6e206e6f7420666f756e640000000000000000000000600082015250565b6000611225601583610ffe565b9150611230826111ef565b602082019050919050565b6000602082019050818103600083015261125481611218565b9050919050565b7f4e487b7100000000000000000000000000000000000000000000000000000000600052602260045260246000fd5b600060028204905060018216806112a257607f821691505b6020821081036112b5576112b461125b565b5b50919050565b600081905092915050565b60008190508160005260206000209050919050565b600081546112e88161128a565b6112f281866112bb565b9450600182166000811461130d576001811461132257611355565b60ff1983168652811515820286019350611355565b61132b856112c6565b60005b8381101561134d5781548189015260018201915060208101905061132e565b838801955050505b50505092915050565b600061136a82846112db565b915081905092915050565b7f5665726966696564000000000000000000000000000000000000000000000000600082015250565b60006113ab600883610ffe565b91506113b682611375565b602082019050919050565b600060608201905081810360008301526113db818561100f565b90506113ea6020830184611054565b81810360408301526113fb8161139e565b90509392505050565b6000606082019050818103600083015261141e818661100f565b905061142d6020830185611054565b818103604083015261143f818461100f565b9050949350505050565b7f5472616e73616374696f6e206d7573742062652076657269666965642066697260008201527f7374000000000000000000000000000000000000000000000000000000000000602082015250565b60006114a5602283610ffe565b91506114b082611449565b604082019050919050565b600060208201905081810360008301526114d481611498565b9050919050565b60006020820190506114f06000830184611054565b92915050565b7f5472616e73616374696f6e20616c7265616479207265636f7264656400000000600082015250565b600061152c601c83610ffe565b9150611537826114f6565b602082019050919050565b6000602082019050818103600083015261155b8161151f565b9050919050565b60008190508160005260206000209050919050565b60006020601f8301049050919050565b600082821b905092915050565b6000600883026115c47fffffffffffffffffffffffffffffffffffffffffffffffffffffffffffffffff82611587565b6115ce8683611587565b95508019841693508086168417925050509392505050565b6000819050919050565b600061160b61160661160184610dcb565b6115e6565b610dcb565b9050919050565b6000819050919050565b611625836115f0565b61163961163182611612565b848454611594565b825550505050565b600090565b61164e611641565b61165981848461161c565b505050565b5b8181101561167d57611672600082611646565b60018101905061165f565b5050565b601f8211156116c25761169381611562565b61169c84611577565b810160208510156116ab578190505b6116bf6116b785611577565b83018261165e565b50505b505050565b600082821c905092915050565b60006116e5600019846008026116c7565b1980831691505092915050565b60006116fe83836116d4565b9150826002028217905092915050565b61171782610f0d565b67ffffffffffffffff8111156117305761172f610b98565b5b61173a825461128a565b611745828285611681565b600060209050601f8311600181146117785760008415611766578287015190505b61177085826116f2565b8655506117d8565b601f19841661178686611562565b60005b828110156117ae57848901518255600182019150602085019450602081019050611789565b868310156117cb57848901516117c7601f8916826116d4565b8355505b6001600288020188555050505b505050505050565b600060408201905081810360008301526117fa818561100f565b9050818103602083015261180e818461100f565b9050939250505056fea26469706673582212205e25c78435d365e498bede080c2cb7df466d6cc6a1b087b5e10e4a6b0d654ce264736f6c63430008140033",
  "linkReferences": {},
  "deployedLinkReferences": {}
}